:020000040800F2
:100000000028002045090008D5080008DB08000882
:10001000E1080008E7080008ED08000800000000FB
:10002000000000000000000000000000F3080008CD
:10003000FF080008000000000B090008170900086D
:100040008D0900088D0900088D0900088D09000838
:100050008D0900088D0900088D0900088D09000828
:100060008D0900088D0900088D0900088D09000818
:100070008D0900088D0900088D0900088D09000808
:100080008D0900088D0900088D0900088D090008F8
:100090008D0900088D0900088D0900088D090008E8
:1000A0008D0900088D0900088D0900088D090008D8
:1000B000250900088D090008000000008D090008CE
:1000C0008D09000800000000000000008D090008F4
:1000D000000000008D0900088D09000800000000E4
:1000E0008D0900088D0900088D0900080000000036
:1000F0000000000000000000000000000000000000
:0C01000000000000000000005FF808F1A3
:10010C0010B5054C237833B9044B13B10448AFF345
:10011C0000800123237010BD0C00002000000000A3
:10012C00E01F000808B5034B1BB103490348AFF3AC
:10013C00008008BD0000000010000020E01F000837
:10014C0080B582B000AF7860C7F800C07B68092B1F
:10015C0000F2C98101A252F823F000BF91010008FE
:10016C00E70100083D02000893020008E9020008BC
:10017C003F03000895030008EB0300084104000846
:10018C009D04000800224FF48071C04800F00AFF63
:10019C0000224FF40071BD4800F004FF00224FF420
:1001AC008061BA4800F0FEFE00224FF40061B748AF
:1001BC0000F0F8FE00224FF48051B44800F0F2FE3B
:1001CC0000224FF40051B14800F0ECFE01224FF434
:1001DC008041AE4800F0E6FE85E101224FF48071CB
:1001EC00AA4800F0DFFE00224FF40071A74800F08F
:1001FC00D9FE00224FF48061A44800F0D3FE012206
:10020C004FF40061A14800F0CDFE01224FF4805163
:10021C009E4800F0C7FE01224FF400519B4800F0AD
:10022C00C1FE01224FF48041984800F0BBFE5AE118
:10023C0000224FF48071954800F0B4FE00224FF478
:10024C000071924800F0AEFE01224FF480618F489D
:10025C0000F0A8FE00224FF400618C4800F0A2FED2
:10026C0000224FF48051894800F09CFE01224FF48B
:10027C000051864800F096FE00224FF480418348DE
:10028C0000F090FE2FE100224FF480717F4800F0C7
:10029C0089FE00224FF400717C4800F083FE00229E
:1002AC004FF48061794800F07DFE00224FF400612C
:1002BC00764800F077FE01224FF48051734800F02D
:1002CC0071FE01224FF40051704800F06BFE0022C9
:1002DC004FF480416D4800F065FE04E101224FF4BB
:1002EC0080716A4800F05EFE00224FF4007167488E
:1002FC0000F058FE00224FF48061644800F052FE7A
:10030C0001224FF40061614800F04CFE01224FF4D1
:10031C0080515E4800F046FE00224FF400515B48CD
:10032C0000F040FE00224FF48041584800F03AFEA5
:10033C00D9E000224FF48071544800F033FE0122C2
:10034C004FF40071514800F02DFE00224FF48061F3
:10035C004E4800F027FE00224FF400614B4800F09D
:10036C0021FE01224FF48051484800F01BFE002270
:10037C004FF40051454800F015FE00224FF4804127
:10038C00424800F00FFEAEE000224FF480713F486F
:10039C0000F008FE01224FF400713C4800F002FE10
:1003AC0000224FF48061394800F0FCFD00224FF42C
:1003BC000061364800F0F6FD00224FF480513348BE
:1003CC0000F0F0FD00224FF40051304800F0EAFD3F
:1003DC0000224FF480412D4800F0E4FD83E0002220
:1003EC004FF48071294800F0DDFD00224FF40071BC
:1003FC00264800F0D7FD00224FF48061234800F01E
:10040C00D1FD01224FF40061204800F0CBFD012208
:10041C004FF480511D4800F0C5FD01224FF40051EE
:10042C001A4800F0BFFD01224FF48041174800F03C
:10043C00B9FD58E000224FF48071144800F0B2FD71
:10044C0000224FF40071114800F0ACFD00224FF473
:10045C0080610E4800F0A6FD00224FF400610B48AD
:10046C0000F0A0FD00224FF48051084800F09AFDE6
:10047C0000224FF40051054800F094FD00224FF487
:10048C008041024800F08EFD2DE000BF00080140C5
:10049C0000224FF48071164800F084FD00224FF4C6
:1004AC000071134800F07EFD00224FF4806110486B
:1004BC0000F078FD00224FF400610D4800F072FD51
:1004CC0001224FF480510A4800F06CFD00224FF4D9
:1004DC000051074800F066FD00224FF480410448AB
:1004EC0000F060FD00BF00BF0837BD4680BD00BFF7
:1004FC000008014080B584B000AF07F118037B60A1
:10050C0000F040FA00F084F800F00AF900F0BCF8B2
:10051C003C4801F0A7F90A23FB600323BB600022CF
:10052C000221394800F03EFD00220821364800F037
:10053C0039FD01220421344800F034FD0122102140
:10054C00324800F02FFD00224021304800F02AFDF7
:10055C00002220212D4800F025FDFB68072B09D136
:10056C000421294800F036FD0821274800F032FD0F
:10057C000223BB60FB68052B11D10821224800F037
:10058C0029FD0221204800F025FD0523BB60102128
:10059C001E4800F01FFD20211C4800F01BFDFB68CD
:1005AC00032B07D12021194800F014FD40211748D6
:1005BC0000F010FDFB68002B13D10221124800F053
:1005CC0009FD0421104800F005FD0323BB60402108
:1005DC000E4800F0FFFC10210C4800F0FBFC0A2335
:1005EC00FB60FB68013BFB603B1D9C46B868FFF75A
:1005FC00A7FDBB68013BBB604FF47A7000F024FA96
:10060C00ABE700BF2800002000080140000C0140AF
:10061C0080B590B000AF07F11803282200211846CE
:10062C0001F0ACFC3B1D00221A605A609A60DA6043
:10063C001A610223BB610123BB621023FB620023FE
:10064C007B6307F11803184600F0DEFC0346002B11
:10065C0001D000F0C3F80F237B600023BB600023A4
:10066C00FB6000233B6100237B613B1D002118468E
:10067C0000F04CFF0346002B01D000F0AFF800BF98
:10068C004037BD4680BD000080B586B000AF07F195
:10069C00080300221A605A609A60DA603B46002216
:1006AC001A605A601D4B4FF080421A601B4B41F68A
:1006BC003F725A60194B00229A60184B0922DA607B
:1006CC00164B00221A61154B00229A61134801F057
:1006DC0079F80346002B01D000F080F84FF48053DA
:1006EC00BB6007F1080319460C4801F0F7F9034603
:1006FC00002B01D000F072F800233B6000237B60DC
:10070C003B461946054801F0CFFB0346002B01D0B0
:10071C0000F064F800BF1837BD4680BD28000020EB
:10072C0080B586B000AF07F1080300221A605A604A
:10073C009A60DA60214B9B69204A43F00403936171
:10074C001E4B9B6903F004037B607B681B4B9B690E
:10075C001A4A43F008039361184B9B6903F0080392
:10076C003B603B68002247F60E71154800F01AFCFE
:10077C0000227021134800F015FC47F60E73BB6085
:10078C000123FB6000233B6102237B6107F108031B
:10079C0019460B4800F08AFA7023BB600123FB60FA
:1007AC0000233B6102237B6107F1080319460548CE
:1007BC0000F07CFA00BF1837BD4680BD0010024027
:1007CC0000080140000C014080B582B000AF786099
:1007DC0000F00AF800BF0837BD4680BD80B400AFFA
:1007EC0072B600BFFEE7000080B400AF094B1B6877
:1007FC00002B0BD1074B1B68013B064A1360054BC2
:10080C001B68002B02DC044B01221A6000BFBD46A2
:10081C0080BC7047700000207400002080B485B04C
:10082C0000AF154B9B69144A43F001039361124BC3
:10083C009B6903F00103BB60BB680F4BDB690E4A7D
:10084C0043F08053D3610C4BDB6903F080537B6026
:10085C007B680A4B5B68FB60FB6823F0E063FB6022
:10086C00FB6843F08063FB60044AFB68536000BF85
:10087C001437BD4680BC7047001002400000014098
:10088C0080B584B000AF78607B681B68B3F1804F93
:10089C0013D10C4BDB690B4A43F00103D361094BB9
:1008AC00DB6903F00103FB60FB68002200211C20C4
:1008BC0000F0C5F91C2000F0DEF900BF1037BD4672
:1008CC0080BD00BF0010024080B400AFFEE780B4D2
:1008DC0000AFFEE780B400AFFEE780B400AFFEE7E8
:1008EC0080B400AFFEE780B400AF00BFBD4680BC53
:1008FC00704780B400AF00BFBD4680BC704780B469
:10090C0000AF00BFBD4680BC704780B500AF00F0A3
:10091C007FF800BF80BD000080B500AF024800F03A
:10092C00EDFF00BF80BD00BF2800002080B400AFE9
:10093C0000BFBD4680BC7047FFF7F8FF0B480C4961
:10094C000C4A002302E0D458C4500433C4188C421F
:10095C00F9D3094A094C002301E013600432A24286
:10096C00FBD301F013FBFFF7C5FD7047000000201F
:10097C000C000020242000080C0000207C0000202B
:10098C00FEE7000080B500AF084B1B68074A43F038
:10099C0010031360032000F047F90F2000F008F853
:1009AC00FFF73CFF0023184680BD00BF002002402B
:1009BC0080B582B000AF7860124B1A68124B1B786E
:1009CC0019464FF47A73B3FBF1F3B2FBF3F3184609
:1009DC0000F05FF90346002B01D001230EE07B6889
:1009EC000F2B0AD8002279684FF0FF3000F027F95E
:1009FC00064A7B681360002300E001231846083781
:100A0C00BD4680BD0000002008000020040000202E
:100A1C0080B400AF054B1B781A46054B1B6813447A
:100A2C00034A136000BFBD4680BC7047080000201D
:100A3C007800002080B400AF024B1B681846BD46FE
:100A4C0080BC70477800002080B584B000AF78601F
:100A5C00FFF7F0FFB8607B68FB60FB68B3F1FF3F0A
:100A6C0005D00A4B1B781A46FB681344FB6000BF89
:100A7C00FFF7E0FF0246BB68D31AFA689A42F7D830
:100A8C0000BF00BF1037BD4680BD00BF080000206E
:100A9C0080B485B000AF78607B6803F00703FB601F
:100AAC000C4BDB68BB60BA684FF6FF031340BB60AE
:100ABC00FB681A02BB68134343F0BF6343F4003373
:100ACC00BB60044ABB68D36000BF1437BD4680BC12
:100ADC00704700BF00ED00E080B400AF044BDB6852
:100AEC001B0A03F007031846BD4680BC704700BFC5
:100AFC0000ED00E080B483B000AF0346FB7197F9C2
:100B0C000730002B0BDBFB7903F01F02064997F92A
:100B1C0007305B09012000FA02F241F8232000BFE4
:100B2C000C37BD4680BC704700E100E080B483B058
:100B3C0000AF03463960FB7197F90730002B0ADBD5
:100B4C003B68DAB20C4997F907301201D2B20B4468
:100B5C0083F800230AE03B68DAB20849FB7903F01A
:100B6C000F03043B1201D2B20B441A7600BF0C37B0
:100B7C00BD4680BC704700BF00E100E000ED00E026
:100B8C0080B489B000AFF860B9607A60FB6803F09C
:100B9C000703FB61FB69C3F10703042B28BF042384
:100BAC00BB61FB690433062B02D9FB69033B00E0F4
:100BBC0000237B614FF0FF32BB6902FA03F3DA4387
:100BCC00BB681A407B699A404FF0FF317B6901FA90
:100BDC0003F3D9437B680B40134318462437BD46B7
:100BEC0080BC704780B582B000AF78607B68013BF9
:100BFC00B3F1807F01D301230FE00A4A7B68013BEC
:100C0C0053600F214FF0FF30FFF790FF054B002290
:100C1C009A60044B07221A60002318460837BD4619
:100C2C0080BD00BF10E000E080B582B000AF7860FE
:100C3C007868FFF72DFF00BF0837BD4680BD80B533
:100C4C0086B000AF0346B9607A60FB7300237B610A
:100C5C00FFF742FF78617A68B9687869FFF790FF0F
:100C6C00024697F90F3011461846FFF75FFF00BF99
:100C7C001837BD4680BD80B582B000AF0346FB710E
:100C8C0097F907301846FFF735FF00BF0837BD4608
:100C9C0080BD80B582B000AF78607868FFF7A2FFA6
:100CAC00034618460837BD4680BD000080B48BB0A3
:100CBC0000AF7860396000237B6200233B6261E106
:100CCC0001227B6A02FA03F3FB613B681B68FA6939
:100CDC001340BB61BA69FB699A4240F050813B6892
:100CEC005B68974A93425ED0954A934275D8954A71
:100CFC00934258D0934A93426FD8934A934252D01E
:100D0C00914A934269D8914A93424CD08F4A93426C
:100D1C0063D88F4A934246D08D4A93425DD8122BAA
:100D2C002AD8122B59D801A252F823F0B30D00087F
:100D3C008D0D00089F0D0008E10D0008E70D00085F
:100D4C00E70D0008E70D0008E70D0008E70D0008A7
:100D5C00E70D0008E70D0008E70D0008E70D000897
:100D6C00E70D0008E70D0008E70D0008E70D000887
:100D7C00950D0008A90D0008764A934213D02CE07B
:100D8C003B68DB683B6229E03B68DB6804333B6211
:100D9C0024E03B68DB6808333B621FE03B68DB68A0
:100DAC000C333B621AE03B689B68002B02D1042396
:100DBC003B6213E03B689B68012B05D108233B6227
:100DCC007B68FA691A6109E008233B627B68FA695F
:100DDC005A6103E000233B6200E000BFBB69FF2BBC
:100DEC0001D87B6801E07B6804337B61BB69FF2B16
:100DFC0002D87B6A9B0002E07B6A083B9B003B614C
:100E0C007B691A680F213B6901FA03F3DB431A4033
:100E1C00396A3B6901FA03F31A437B691A603B6830
:100E2C005B6803F08053002B00F0A9804A4B9B6950
:100E3C00494A43F001039361474B9B6903F001035B
:100E4C00BB60BB68454A7B6A9B08023352F823306F
:100E5C00FB607B6A03F003039B000F2202FA03F38F
:100E6C00DB43FA681340FB607B683D4A93420DD02C
:100E7C007B683C4A934207D07B683B4A934201D142
:100E8C00022304E0032302E0012300E000237A6A3A
:100E9C0002F0030292009340FA681343FB602F495F
:100EAC007B6A9B080233FA6841F823203B685B6835
:100EBC0003F48013002B06D02C4B9A682B49BB698A
:100ECC0013438B6006E0294B9A68BB69DB432749C7
:100EDC0013408B603B685B6803F40013002B06D057
:100EEC00224BDA682149BB691343CB6006E01F4BE8
:100EFC00DA68BB69DB431D491340CB603B685B6818
:100F0C0003F40033002B06D0184B5A681749BB6901
:100F1C0013434B6006E0154B5A68BB69DB4313491E
:100F2C0013404B603B685B6803F48033002B1FD08D
:100F3C000E4B1A680D49BB6913430B601FE000BFD1
:100F4C0000003210000031100000221000002110AF
:100F5C0000001210000011100010024000000140AF
:100F6C0000080140000C0140001001400004014049
:100F7C000B4B1A68BB69DB43094913400B607B6A56
:100F8C0001337B623B681A687B6A22FA03F3002BFD
:100F9C007FF496AE00BF00BF2C37BD4680BC7047B7
:100FAC000004014080B483B000AF78600B467B80B6
:100FBC0013467B707B78002B03D07A887B681A6190
:100FCC0003E07B881A047B681A6100BF0C37BD46AE
:100FDC0080BC704780B485B000AF78600B467B80D6
:100FEC007B68DB68FB607A88FB6813401A04FB683B
:100FFC00D9437B880B401A437B681A6100BF1437B6
:10100C00BD4680BC7047000080B586B000AF7860EC
:10101C007B68002B01D1012372E27B681B6803F013
:10102C000103002B00F08780924B5B6803F00C03EC
:10103C00042B0CD08F4B5B6803F00C03082B12D1E4
:10104C008C4B5B6803F48033B3F5803F0BD1894B39
:10105C001B6803F40033002B6CD07B685B68002B9F
:10106C0068D101234CE27B685B68B3F5803F06D105
:10107C00804B1B687F4A43F4803313602EE07B68FF
:10108C005B68002B0CD17B4B1B687A4A23F48033B2
:10109C001360784B1B68774A23F4802313601DE0A0
:1010AC007B685B68B3F5A02F0CD1724B1B68714A3F
:1010BC0043F4802313606F4B1B686E4A43F48033F8
:1010CC0013600BE06B4B1B686A4A23F4803313608C
:1010DC00684B1B68674A23F4802313607B685B684A
:1010EC00002B13D0FFF7A6FC386108E0FFF7A2FC39
:1010FC0002463B69D31A642B01D9032300E25D4BF2
:10110C001B6803F40033002BF0D014E0FFF792FCC3
:10111C00386108E0FFF78EFC02463B69D31A642B5A
:10112C0001D90323ECE1534B1B6803F40033002B70
:10113C00F0D100E000BF7B681B6803F00203002BBA
:10114C0063D04C4B5B6803F00C03002B0BD0494B6A
:10115C005B6803F00C03082B1CD1464B5B6803F453
:10116C008033002B16D1434B1B6803F00203002B7A
:10117C0005D07B681B69012B01D00123C0E13D4BDD
:10118C001B6823F0F8027B685B69DB003949134369
:10119C000B603AE07B681B69002B20D0364B012298
:1011AC001A60FFF747FC386108E0FFF743FC024682
:1011BC003B69D31A022B01D90323A1E12D4B1B68E8
:1011CC0003F00203002BF0D02A4B1B6823F0F8022B
:1011DC007B685B69DB00274913430B6015E0264BEA
:1011EC0000221A60FFF726FC386108E0FFF722FCAA
:1011FC0002463B69D31A022B01D9032380E11D4B14
:10120C001B6803F00203002BF0D17B681B6803F012
:10121C000803002B3AD07B689B69002B19D0174B25
:10122C0001221A60FFF706FC386108E0FFF702FCA8
:10123C0002463B69D31A022B01D9032360E10D4B03
:10124C005B6A03F00203002BF0D0012000F09CFA43
:10125C001CE00A4B00221A60FFF7ECFB38610FE030
:10126C00FFF7E8FB02463B69D31A022B08D903238C
:10127C0046E100BF0010024000004242800442429E
:10128C00924B5B6A03F00203002BE9D17B681B686D
:10129C0003F00403002B00F0A6800023FB758B4B9E
:1012AC00DB6903F08053002B0DD1884BDB69874A37
:1012BC0043F08053D361854BDB6903F08053BB60F3
:1012CC00BB680123FB75824B1B6803F48073002BF6
:1012DC0018D17F4B1B687E4A43F480731360FFF771
:1012EC00A9FB386108E0FFF7A5FB02463B69D31A5E
:1012FC00642B01D9032303E1754B1B6803F4807342
:10130C00002BF0D07B68DB68012B06D16F4B1B6A7E
:10131C006E4A43F0010313622DE07B68DB68002BFF
:10132C000CD16A4B1B6A694A23F001031362674BA9
:10133C001B6A664A23F0040313621CE07B68DB68BB
:10134C00052B0CD1614B1B6A604A43F004031362FA
:10135C005E4B1B6A5D4A43F0010313620BE05B4B6F
:10136C001B6A5A4A23F001031362584B1B6A574AF3
:10137C0023F0040313627B68DB68002B15D0FFF7A6
:10138C0059FB38610AE0FFF755FB02463B69D31A5B
:10139C0041F28832934201D90323B1E04B4B1B6AD3
:1013AC0003F00203002BEED014E0FFF743FB38618F
:1013BC000AE0FFF73FFB02463B69D31A41F2883241
:1013CC00934201D903239BE0404B1B6A03F00203B9
:1013DC00002BEED1FB7D012B05D13C4BDB693B4A4D
:1013EC0023F08053D3617B68DB69002B00F087808E
:1013FC00364B5B6803F00C03082B61D07B68DB6910
:10140C00022B46D1334B00221A60FFF713FB3861D5
:10141C0008E0FFF70FFB02463B69D31A022B01D9F8
:10142C0003236DE0294B1B6803F00073002BF0D1F4
:10143C007B681B6AB3F5803F08D1244B5B6823F4AF
:10144C0000327B689B68214913434B601F4B5B68E0
:10145C0023F474127B68196A7B685B6A0B431B4923
:10146C0013434B601B4B01221A60FFF7E3FA386100
:10147C0008E0FFF7DFFA02463B69D31A022B01D9C9
:10148C0003233DE0114B1B6803F00073002BF0D0DD
:10149C0035E0104B00221A60FFF7CCFA386108E0F7
:1014AC00FFF7C8FA02463B69D31A022B01D9032372
:1014BC0026E0064B1B6803F00073002BF0D11EE0F6
:1014CC007B68DB69012B07D1012319E00010024076
:1014DC0000700040600042420B4B5B68FB60FB6895
:1014EC0003F480327B681B6A9A4206D1FB6803F4D2
:1014FC0070127B685B6A9A4201D0012300E00023E2
:10150C0018461837BD4680BD0010024080B584B027
:10151C0000AF786039607B68002B01D10123D0E0EB
:10152C006A4B1B6803F007033A689A4210D9674B61
:10153C001B6823F0070265493B6813430B60634B40
:10154C001B6803F007033A689A4201D00123B8E004
:10155C007B681B6803F00203002B20D07B681B68A0
:10156C0003F00403002B05D0594B5B68584A43F435
:10157C00E06353607B681B6803F00803002B05D005
:10158C00534B5B68524A43F460535360504B5B6857
:10159C0023F0F0027B689B684D4913434B607B68DA
:1015AC001B6803F00103002B40D07B685B68012BA8
:1015BC0007D1474B1B6803F40033002B15D10123D3
:1015CC007FE07B685B68022B07D1414B1B6803F003
:1015DC000073002B09D1012373E03D4B1B6803F012
:1015EC000203002B01D101236BE0394B5B6823F024
:1015FC0003027B685B68364913434B60FFF71AFAAA
:10160C00F8600AE0FFF716FA0246FB68D31A41F2BB
:10161C008832934201D9032353E02D4B5B6803F0CE
:10162C000C027B685B689B009A42EBD1274B1B68D2
:10163C0003F007033A689A4210D2244B1B6823F03C
:10164C00070222493B6813430B60204B1B6803F0D5
:10165C0007033A689A4201D0012332E07B681B6889
:10166C0003F00403002B08D0194B5B6823F4E062F1
:10167C007B68DB68164913434B607B681B6803F07F
:10168C000803002B09D0124B5B6823F460527B6873
:10169C001B69DB000E4913434B6000F021F8024636
:1016AC000B4B5B681B0903F00F030A49CB5C22FA56
:1016BC0003F3094A1360094B1B681846FFF778F9C6
:1016CC00002318461037BD4680BD00BF00200240E5
:1016DC0000100240F81F0008000000200400002049
:1016EC0080B487B000AF0023FB600023BB600023F5
:1016FC007B6100237B6000233B611E4B5B68FB60BE
:10170C00FB6803F00C03042B02D0082B03D027E05A
:10171C00194B3B6127E0FB689B0C03F00F03174A46
:10172C00D35C7B60FB6803F48033002B10D0114B2F
:10173C005B685B0C03F00103114AD35CBB607B68F4
:10174C000D4A03FB02F2BB68B2FBF3F37B6104E0CE
:10175C007B680C4A02FB03F37B617B693B6102E013
:10176C00054B3B6100BF3B6918461C37BD4680BC2E
:10177C00704700BF0010024000127A0008200008D9
:10178C001820000800093D0080B485B000AF7860D7
:10179C000A4B1B680A4AA2FB03235B0A7A6802FB0A
:1017AC0003F3FB6000BFFB685A1EFA60002BF9D1F3
:1017BC0000BF00BF1437BD4680BC7047000000203E
:1017CC00D34D621080B582B000AF78607B68002B7F
:1017DC0001D1012341E07B6893F83D30DBB2002B53
:1017EC0006D17B68002283F83C207868FFF748F824
:1017FC007B68022283F83D207B681A687B6804337F
:10180C001946104600F056FA7B68012283F84620F0
:10181C007B68012283F83E207B68012283F83F20FD
:10182C007B68012283F840207B68012283F84120E9
:10183C007B68012283F842207B68012283F84320D5
:10184C007B68012283F844207B68012283F84520C1
:10185C007B68012283F83D20002318460837BD46DB
:10186C0080BD000080B485B000AF78607B6893F8D1
:10187C003D30DBB2012B01D0012335E07B68022225
:10188C0083F83D207B681B68DA687B681B6842F034
:10189C000102DA607B681B68164A934209D07B68A8
:1018AC001B68B3F1804F04D07B681B68124A9342CB
:1018BC0011D17B681B689B6803F00703FB60FB6816
:1018CC00062B10D07B681B681A687B681B6842F07B
:1018DC0001021A6007E07B681B681A687B681B684A
:1018EC0042F001021A60002318461437BD4680BC32
:1018FC00704700BF002C01400004004080B584B04C
:10190C0000AF78607B681B68DB68FB607B681B68DA
:10191C001B69BB60BB6803F00203002B20D0FB6883
:10192C0003F00203002B1BD07B681B686FF00202D4
:10193C001A617B6801221A777B681B689B6903F02C
:10194C000303002B03D0786800F098F905E0786861
:10195C0000F08BF9786800F09AF97B6800221A770E
:10196C00BB6803F00403002B20D0FB6803F00403D6
:10197C00002B1BD07B681B686FF004021A617B681C
:10198C0002221A777B681B689B6903F44073002B57
:10199C0003D0786800F072F905E0786800F065F91A
:1019AC00786800F074F97B6800221A77BB6803F042
:1019BC000803002B20D0FB6803F00803002B1BD07E
:1019CC007B681B686FF008021A617B6804221A7727
:1019DC007B681B68DB6903F00303002B03D078687A
:1019EC0000F04CF905E0786800F03FF9786800F0F9
:1019FC004EF97B6800221A77BB6803F01003002BAA
:101A0C0020D0FB6803F01003002B1BD07B681B68F5
:101A1C006FF010021A617B6808221A777B681B68CA
:101A2C00DB6903F44073002B03D0786800F026F9CF
:101A3C0005E0786800F019F9786800F028F97B68FF
:101A4C0000221A77BB6803F00103002B0CD0FB6853
:101A5C0003F00103002B07D07B681B686FF00102B9
:101A6C001A617868FEF7B0FEBB6803F08003002BA8
:101A7C000CD0FB6803F08003002B07D07B681B683D
:101A8C006FF080021A61786800F06FFABB6803F09F
:101A9C004003002B0CD0FB6803F04003002B07D055
:101AAC007B681B686FF040021A61786800F0F8F8E8
:101ABC00BB6803F02003002B0CD0FB6803F0200361
:101ACC00002B07D07B681B686FF020021A617868C6
:101ADC0000F042FA00BF1037BD4680BD80B584B01F
:101AEC0000AF786039600023FB737B6893F83C305F
:101AFC00012B01D10223B4E07B68012283F83C2046
:101B0C007B68022283F83D207B681B689B68BB6066
:101B1C00BB6823F07703BB60BB6823F47F43BB60D7
:101B2C007B681B68BA689A603B681B68B3F5005FFA
:101B3C003ED0B3F5005F00F28780B3F5805F00F014
:101B4C008680B3F5805F7FD8702B1AD0702B7BD832
:101B5C00602B50D0602B77D8502B3CD0502B73D8A7
:101B6C00402B58D0402B6FD8302B64D0302B6BD8F7
:101B7C00202B60D0202B67D8002B5CD0102B5AD098
:101B8C0062E07B6818683B6899683B685A683B68F8
:101B9C00DB6800F06AF97B681B689B68BB60BB68FC
:101BAC0043F07703BB607B681B68BA689A604FE0B0
:101BBC007B6818683B6899683B685A683B68DB68C7
:101BCC0000F053F97B681B689A687B681B6842F4C9
:101BDC0080429A603CE07B6818683B6859683B68B7
:101BEC00DB681A4600F0CAF87B681B68502118465F
:101BFC0000F021F92CE07B6818683B6859683B6859
:101C0C00DB681A4600F0E8F87B681B686021184610
:101C1C0000F011F91CE07B6818683B6859683B6858
:101C2C00DB681A4600F0AAF87B681B68402118464E
:101C3C0000F001F90CE07B681A683B681B681946D8
:101C4C00104600F0F8F803E00123FB7300E000BF3E
:101C5C007B68012283F83D207B68002283F83C20BE
:101C6C00FB7B18461037BD4680BD80B483B000AFF7
:101C7C00786000BF0C37BD4680BC704780B483B021
:101C8C0000AF786000BF0C37BD4680BC704780B495
:101C9C0083B000AF786000BF0C37BD4680BC704786
:101CAC0080B483B000AF786000BF0C37BD4680BCF9
:101CBC007047000080B485B000AF786039607B68F5
:101CCC001B68FB607B682B4A934207D07B68B3F19F
:101CDC00804F03D07B68284A934208D1FB6823F0DD
:101CEC007003FB603B685B68FA681343FB607B68BE
:101CFC00204A934207D07B68B3F1804F03D07B68B6
:101D0C001D4A934208D1FB6823F44073FB603B6887
:101D1C00DB68FA681343FB60FB6823F080023B68C6
:101D2C005B691343FB607B68FA681A603B689A68CE
:101D3C007B68DA623B681A687B689A627B680D4A3A
:101D4C00934203D13B681A697B681A637B68012252
:101D5C005A617B681B6903F00103002B05D07B687B
:101D6C001B6923F001027B681A6100BF1437BD4662
:101D7C0080BC7047002C01400004004080B487B048
:101D8C0000AFF860B9607A60FB681B6A7B61FB6826
:101D9C001B6A23F00102FB681A62FB689B693B61BA
:101DAC003B6923F0F0033B617B681B013A691343E9
:101DBC003B617B6923F00A037B617A69BB6813433F
:101DCC007B61FB683A699A61FB687A691A6200BFA9
:101DDC001C37BD4680BC704780B487B000AFF8603C
:101DEC00B9607A60FB681B6A7B61FB681B6A23F035
:101DFC001002FB681A62FB689B693B613B6923F428
:101E0C0070433B617B681B033A6913433B617B69FD
:101E1C0023F0A0037B61BB681B017A6913437B61D0
:101E2C00FB683A699A61FB687A691A6200BF1C37D1
:101E3C00BD4680BC704780B485B000AF7860396017
:101E4C007B689B68FB60FB6823F07003FB603A685F
:101E5C00FB68134343F00703FB607B68FA689A60E6
:101E6C0000BF1437BD4680BC704780B487B000AF4C
:101E7C00F860B9607A603B60FB689B687B617B694A
:101E8C0023F47F437B613B681A027B681A43BB686F
:101E9C0013437A6913437B61FB687A699A6000BFCC
:101EAC001C37BD4680BC704780B485B000AF7860ED
:101EBC0039607B6893F83C30012B01D1022341E05F
:101ECC007B68012283F83C207B68022283F83D204A
:101EDC007B681B685B68FB607B681B689B68BB60EE
:101EEC00FB6823F07003FB603B681B68FA681343C4
:101EFC00FB607B681B68FA685A607B681B68144A35
:101F0C00934209D07B681B68B3F1804F04D07B6887
:101F1C001B68104A93420CD1BB6823F08003BB6052
:101F2C003B685B68BA681343BB607B681B68BA6824
:101F3C009A607B68012283F83D207B68002283F83D
:101F4C003C20002318461437BD4680BC704700BFA8
:101F5C00002C01400004004080B483B000AF7860D6
:101F6C0000BF0C37BD4680BC704780B483B000AF57
:101F7C00786000BF0C37BD4680BC704703460244F6
:101F8C00934200D1704703F8011BF9E770B50026A6
:101F9C000C4D0D4C641BA410A64209D100F01AF88C
:101FAC0000260A4D0A4C641BA410A64205D170BD34
:101FBC0055F8043B98470136EEE755F8043B984733
:101FCC000136F2E71C2000081C2000081C20000829
:101FDC0020200008F8B500BFF8BC08BC9E4670472E
:0C1FEC00F8B500BFF8BC08BC9E4670476A
:101FF80000000000000000000102030406070809B1
:1020080002030405060708090A0B0C0D0E0F101031
:0420180001020000C1
:04201C003101000886
:042020000D010008A6
:0C20240000127A00100000000100000013
:0400000508000945A1
:00000001FF
